{
  "_format": "hh-sol-artifact-1",
  "contractName": "MessageBoard",
  "sourceName": "contracts/MessageBoard.sol",
  "abi": [
    {
      "inputs": [],
      "stateMutability": "payable",
      "type": "constructor"
    },
    {
      "anonymous": false,
      "inputs": [
        {
          "indexed": true,
          "internalType": "address",
          "name": "from",
          "type": "address"
        },
        {
          "indexed": false,
          "internalType": "uint256",
          "name": "timestamp",
          "type": "uint256"
        },
        {
          "indexed": false,
          "internalType": "string",
          "name": "message",
          "type": "string"
        }
      ],
      "name": "NewPost",
      "type": "event"
    },
    {
      "inputs": [],
      "name": "getAllPosts",
      "outputs": [
        {
          "components": [
            {
              "internalType": "address",
              "name": "postUser",
              "type": "address"
            },
            {
              "internalType": "string",
              "name": "message",
              "type": "string"
            },
            {
              "internalType": "uint256",
              "name": "timestamp",
              "type": "uint256"
            }
          ],
          "internalType": "struct MessageBoard.Post[]",
          "name": "",
          "type": "tuple[]"
        }
      ],
      "stateMutability": "view",
      "type": "function"
    },
    {
      "inputs": [],
      "name": "getPostCount",
      "outputs": [
        {
          "internalType": "uint256",
          "name": "",
          "type": "uint256"
        }
      ],
      "stateMutability": "view",
      "type": "function"
    },
    {
      "inputs": [
        {
          "internalType": "address",
          "name": "",
          "type": "address"
        }
      ],
      "name": "lastPostTimestamp",
      "outputs": [
        {
          "internalType": "uint256",
          "name": "",
          "type": "uint256"
        }
      ],
      "stateMutability": "view",
      "type": "function"
    },
    {
      "inputs": [
        {
          "internalType": "string",
          "name": "_message",
          "type": "string"
        }
      ],
      "name": "post",
      "outputs": [],
      "stateMutability": "nonpayable",
      "type": "function"
    }
  ],
  "bytecode": "0x60806040526200004f6040518060400160405280601d81526020017f4d657373616765426f61726420636f6e7374727563746f722063616c6c0000008152506200007760201b6200067d1760201c565b606444426200005f9190620001c4565b6200006b919062000261565b60018190555062000308565b62000117816040516024016200008e919062000184565b6040516020818303038152906040527f41304fac000000000000000000000000000000000000000000000000000000007bffffffffffffffffffffffffffffffffffffffffffffffffffffffff19166020820180517bffffffffffffffffffffffffffffffffffffffffffffffffffffffff83818316178352505050506200011a60201b60201c565b50565b60008151905060006a636f6e736f6c652e6c6f679050602083016000808483855afa5050505050565b60006200015082620001a8565b6200015c8185620001b3565b93506200016e8185602086016200022b565b6200017981620002f7565b840191505092915050565b60006020820190508181036000830152620001a0818462000143565b905092915050565b600081519050919050565b600082825260208201905092915050565b6000620001d18262000221565b9150620001de8362000221565b9250827fffffffffffffffffffffffffffffffffffffffffffffffffffffffffffffffff0382111562000216576200021562000299565b5b828201905092915050565b6000819050919050565b60005b838110156200024b5780820151818401526020810190506200022e565b838111156200025b576000848401525b50505050565b60006200026e8262000221565b91506200027b8362000221565b9250826200028e576200028d620002c8565b5b828206905092915050565b7f4e487b7100000000000000000000000000000000000000000000000000000000600052601160045260246000fd5b7f4e487b7100000000000000000000000000000000000000000000000000000000600052601260045260246000fd5b6000601f19601f8301169050919050565b61124980620003186000396000f3fe608060405234801561001057600080fd5b506004361061004c5760003560e01c806330561100146100515780638ee93cf31461006f578063bcc954071461008b578063db86e57d146100a9575b600080fd5b6100596100d9565b6040516100669190610cc8565b60405180910390f35b61008960048036038101906100849190610a5f565b61022a565b005b61009361061a565b6040516100a09190610e11565b60405180910390f35b6100c360048036038101906100be9190610a36565b610665565b6040516100d09190610e11565b60405180910390f35b60606003805480602002602001604051908101604052809291908181526020016000905b8282101561022157838290600052602060002090600302016040518060600160405290816000820160009054906101000a900473ffffffffffffffffffffffffffffffffffffffff1673ffffffffffffffffffffffffffffffffffffffff1673ffffffffffffffffffffffffffffffffffffffff16815260200160018201805461018690610ff7565b80601f01602080910402602001604051908101604052809291908181526020018280546101b290610ff7565b80156101ff5780601f106101d4576101008083540402835291602001916101ff565b820191906000526020600020905b8154815290600101906020018083116101e257829003601f168201915b50505050508152602001600282015481525050815260200190600101906100fd565b50505050905090565b42610258600260003373ffffffffffffffffffffffffffffffffffffffff1673ffffffffffffffffffffffffffffffffffffffff168152602001908152602001600020546102789190610f23565b106102b8576040517f08c379a00000000000000000000000000000000000000000000000000000000081526004016102af90610df1565b60405180910390fd5b42600260003373ffffffffffffffffffffffffffffffffffffffff1673ffffffffffffffffffffffffffffffffffffffff16815260200190815260200160002081905550600160008082825461030e9190610f23565b925050819055506103556040518060400160405280601281526020017f25732068617320706f73746564202725732700000000000000000000000000008152503383610716565b600360405180606001604052803373ffffffffffffffffffffffffffffffffffffffff16815260200183815260200142815250908060018154018082558091505060019003906000526020600020906003020160009091909190915060008201518160000160006101000a81548173ffffffffffffffffffffffffffffffffffffffff021916908373ffffffffffffffffffffffffffffffffffffffff1602179055506020820151816001019080519060200190610414929190610916565b506040820151816002015550506064444261042f9190610f23565b610439919061105a565b6001819055506104806040518060400160405280601681526020017f52616e646f6d2067656e65726174656420233a202564000000000000000000008152506001546107b5565b603260015411156105c7576104ca6040518060400160405280601e81526020017f257320776f6e20302e303030312065746820666f7220706f7374696e6721000081525033610851565b6000655af3107a4000905047811115610518576040517f08c379a000000000000000000000000000000000000000000000000000000000815260040161050f90610db1565b60405180910390fd5b60003373ffffffffffffffffffffffffffffffffffffffff168260405161053e90610cb3565b60006040518083038185875af1925050503d806000811461057b576040519150601f19603f3d011682016040523d82523d6000602084013e610580565b606091505b50509050806105c4576040517f08c379a00000000000000000000000000000000000000000000000000000000081526004016105bb90610dd1565b60405180910390fd5b50505b3373ffffffffffffffffffffffffffffffffffffffff167fd8c86c7877c3f1f8a40af6cf64a11fe867af887f2a1ad31aac849e36730425b0428360405161060f929190610e2c565b60405180910390a250565b600061065d6040518060400160405280601881526020017f54686572652061726520256420746f74616c20706f73747300000000000000008152506000546107b5565b600054905090565b60026020528060005260406000206000915090505481565b610713816040516024016106919190610cea565b6040516020818303038152906040527f41304fac000000000000000000000000000000000000000000000000000000007bffffffffffffffffffffffffffffffffffffffffffffffffffffffff19166020820180517bffffffffffffffffffffffffffffffffffffffffffffffffffffffff83818316178352505050506108ed565b50565b6107b083838360405160240161072e93929190610d3c565b6040516020818303038152906040527fe0e9ad4f000000000000000000000000000000000000000000000000000000007bffffffffffffffffffffffffffffffffffffffffffffffffffffffff19166020820180517bffffffffffffffffffffffffffffffffffffffffffffffffffffffff83818316178352505050506108ed565b505050565b61084d82826040516024016107cb929190610d81565b6040516020818303038152906040527f9710a9d0000000000000000000000000000000000000000000000000000000007bffffffffffffffffffffffffffffffffffffffffffffffffffffffff19166020820180517bffffffffffffffffffffffffffffffffffffffffffffffffffffffff83818316178352505050506108ed565b5050565b6108e98282604051602401610867929190610d0c565b6040516020818303038152906040527f319af333000000000000000000000000000000000000000000000000000000007bffffffffffffffffffffffffffffffffffffffffffffffffffffffff19166020820180517bffffffffffffffffffffffffffffffffffffffffffffffffffffffff83818316178352505050506108ed565b5050565b60008151905060006a636f6e736f6c652e6c6f679050602083016000808483855afa5050505050565b82805461092290610ff7565b90600052602060002090601f016020900481019282610944576000855561098b565b82601f1061095d57805160ff191683800117855561098b565b8280016001018555821561098b579182015b8281111561098a57825182559160200191906001019061096f565b5b509050610998919061099c565b5090565b5b808211156109b557600081600090555060010161099d565b5090565b60006109cc6109c784610e81565b610e5c565b9050828152602081018484840111156109e457600080fd5b6109ef848285610fb5565b509392505050565b600081359050610a06816111fc565b92915050565b600082601f830112610a1d57600080fd5b8135610a2d8482602086016109b9565b91505092915050565b600060208284031215610a4857600080fd5b6000610a56848285016109f7565b91505092915050565b600060208284031215610a7157600080fd5b600082013567ffffffffffffffff811115610a8b57600080fd5b610a9784828501610a0c565b91505092915050565b6000610aac8383610c45565b905092915050565b610abd81610f79565b82525050565b610acc81610f79565b82525050565b6000610add82610ec2565b610ae78185610ee5565b935083602082028501610af985610eb2565b8060005b85811015610b355784840389528151610b168582610aa0565b9450610b2183610ed8565b925060208a01995050600181019050610afd565b50829750879550505050505092915050565b6000610b5282610ecd565b610b5c8185610f01565b9350610b6c818560208601610fc4565b610b7581611147565b840191505092915050565b6000610b8b82610ecd565b610b958185610f12565b9350610ba5818560208601610fc4565b610bae81611147565b840191505092915050565b6000610bc6602f83610f12565b9150610bd182611158565b604082019050919050565b6000610be9601983610f12565b9150610bf4826111a7565b602082019050919050565b6000610c0c600083610ef6565b9150610c17826111d0565b600082019050919050565b6000610c2f601f83610f12565b9150610c3a826111d3565b602082019050919050565b6000606083016000830151610c5d6000860182610ab4565b5060208301518482036020860152610c758282610b47565b9150506040830151610c8a6040860182610c95565b508091505092915050565b610c9e81610fab565b82525050565b610cad81610fab565b82525050565b6000610cbe82610bff565b9150819050919050565b60006020820190508181036000830152610ce28184610ad2565b905092915050565b60006020820190508181036000830152610d048184610b80565b905092915050565b60006040820190508181036000830152610d268185610b80565b9050610d356020830184610ac3565b9392505050565b60006060820190508181036000830152610d568186610b80565b9050610d656020830185610ac3565b8181036040830152610d778184610b80565b9050949350505050565b60006040820190508181036000830152610d9b8185610b80565b9050610daa6020830184610ca4565b9392505050565b60006020820190508181036000830152610dca81610bb9565b9050919050565b60006020820190508181036000830152610dea81610bdc565b9050919050565b60006020820190508181036000830152610e0a81610c22565b9050919050565b6000602082019050610e266000830184610ca4565b92915050565b6000604082019050610e416000830185610ca4565b8181036020830152610e538184610b80565b90509392505050565b6000610e66610e77565b9050610e728282611029565b919050565b6000604051905090565b600067ffffffffffffffff821115610e9c57610e9b611118565b5b610ea582611147565b9050602081019050919050565b6000819050602082019050919050565b600081519050919050565b600081519050919050565b6000602082019050919050565b600082825260208201905092915050565b600081905092915050565b600082825260208201905092915050565b600082825260208201905092915050565b6000610f2e82610fab565b9150610f3983610fab565b9250827fffffffffffffffffffffffffffffffffffffffffffffffffffffffffffffffff03821115610f6e57610f6d61108b565b5b828201905092915050565b6000610f8482610f8b565b9050919050565b600073ffffffffffffffffffffffffffffffffffffffff82169050919050565b6000819050919050565b82818337600083830152505050565b60005b83811015610fe2578082015181840152602081019050610fc7565b83811115610ff1576000848401525b50505050565b6000600282049050600182168061100f57607f821691505b60208210811415611023576110226110e9565b5b50919050565b61103282611147565b810181811067ffffffffffffffff8211171561105157611050611118565b5b80604052505050565b600061106582610fab565b915061107083610fab565b9250826110805761107f6110ba565b5b828206905092915050565b7f4e487b7100000000000000000000000000000000000000000000000000000000600052601160045260246000fd5b7f4e487b7100000000000000000000000000000000000000000000000000000000600052601260045260246000fd5b7f4e487b7100000000000000000000000000000000000000000000000000000000600052602260045260246000fd5b7f4e487b7100000000000000000000000000000000000000000000000000000000600052604160045260246000fd5b6000601f19601f8301169050919050565b7f416d6f756e7420746f2062652077697468647261776e2065786365656473206360008201527f6f6e74726163742062616c616e63650000000000000000000000000000000000602082015250565b7f4661696c656420746f20776974686472617720616d6f756e7400000000000000600082015250565b50565b7f576169742031306d696e206265666f726520706f7374696e6720616761696e00600082015250565b61120581610f79565b811461121057600080fd5b5056fea2646970667358221220e3c5791fb1819f05e237d9f71e573ed48d93efd14a55454308b599458786d2a464736f6c63430008040033",
  "linkReferences": {},
  "deployedLinkReferences": {}
}